:060000000A128A11122809
:10000800FE00030EF5000408F6000A08F700831244
:1000180003137F08F8000A128A118A2B0A128A1120
:100028001528CC01CD01CE01CF01D0018313A0301A
:100038008400E0300A128A11AD2383010A128A1162
:100048002528803083120313A0002530A1000A124E
:100058008A11B0220A128A11343083120313B500B0
:10006800F130B400B40B3628B50B36283B280030E5
:1000780083120313CB000030CA000030C9000030DF
:10008800C80083160313860187010A128A11A42364
:100098000A128A111C300A128A116E230A128A1156
:1000A80000300A128A1150230A128A11831203138C
:1000B8002008B4002108B5000310B50CB40C3408AE
:1000C800FF3EC80035080318013EFF3EC900CA01BB
:1000D800CB01480887000330B6000830B5007830F7
:1000E800B400B40B7528B50B7528B60B752800300D
:1000F80083120313A9000030A8000330A700E830DA
:10010800A6004B08AD004A08AC004908AB004808F7
:10011800AA000A128A110B220A128A1183120313E7
:100128002708C7002608C6000030A9000030A8002C
:100138000030A7006430A6004808B4004908B5009C
:100148004A08B6004B08B7004708A1004608A000B7
:10015800E830A2000330A3000A128A112D230A12E4
:100168008A11831203132008B8002108B900BA01C4
:10017800BB01B809B909BA09BB09B80A0319B90A10
:100188000319BA0A0319BB0A3808B407390803184F
:10019800390FCF28D028B5073A0803183A0FD528C1
:1001A800D628B6073B0803183B0AB7073708AD003F
:1001B8003608AC003508AB003408AA000A128A11C8
:1001C8000B220A128A11831203132708C500260876
:1001D800C4000030A9000030A8000030A7000A3091
:1001E800A6004808B4004908B5004A08B6004B08FC
:1001F800B7004708A1004608A000E830A200033075
:10020800A3000A128A112D230A128A1183120313DA
:100218002008B8002108B9004508A1004408A0003A
:100228006430A2000030A3000A128A112D230A129A
:100238008A118312031320083807BA00210803180B
:10024800210A3907BB003A08BC003B08BD00BE01C3
:10025800BF01BC09BD09BE09BF09BC0A0319BD0A13
:100268000319BE0A0319BF0A3C08B4073D0803185E
:100278003D0F3F294029B5073E0803183E0F452981
:100288004629B6073F0803183F0AB7073708AD00E5
:100298003608AC003508AB003408AA000A128A11E7
:1002A8000B220A128A11831203132708C300260897
:1002B800C2004708A1004608A000E830A2000330A9
:1002C800A3000A128A112D230A128A11831203131A
:1002D8002008B4002108B5004508A1004408A00082
:1002E8006430A2000030A3000A128A112D230A12DA
:1002F8008A118312031320083407B6002108031853
:10030800210A3507B7004308A1004208A0000A30B7
:10031800A2000030A3000A128A112D230A128A11A2
:100328008312031320083607B80021080318210A8E
:100338003707B900B809B909B80A0319B90A48084A
:100348003807C00049080318490A3907C1000C1EBC
:10035800AB294608303E99000630B5003030B4006D
:10036800B40BB429B50BB4290000831203130C1E77
:10037800B9294408303E99000630B5003030B40041
:10038800B40BC429B50BC4290000831203130C1E37
:10039800C9294208303E99000630B5003030B40013
:1003A800B40BD429B50BD4290000831203130C1EF7
:1003B800D9294008303E99000630B5003030B400E5
:1003C800B40BE429B50BE4290000831203130C1EB7
:1003D800E929F830990001300A128A116E230A12AD
:1003E8008A1125300A128A116E230A128A111530D1
:1003F80083120313B6004B30B500D130B400B40BF0
:10040800032AB50B032AB60B032A00005428003030
:1004180083120313B2000030B1000030B000003086
:10042800AF0029082804270426040319622AB30107
:10043800B30AA91B2D2A0130AE000310A60DA70D83
:10044800A80DA90DAE0B212A0130AE002E08B30766
:100458001D2A0130AE000310AF0DB00DB10DB20D65
:10046800AE0B2F2A29082D02031D442A28082C0226
:10047800031D442A27082B02031D442A26082A02A2
:10048800031C552A2608AA022708031C270FAB02BB
:100498002808031C280FAC022908031C290FAD02E9
:1004A8002F1401300310A90CA80CA70CA60CFF3EB2
:1004B800031D562A0130B302031D2D2A3208A90054
:1004C8003108A8003008A7002F08A60008008312EA
:1004D8000313861C712A8610722A86141A08F000E3
:1004E8007008F4003F30790603197A080319912A35
:1004F8007A08F000F101F01BF10301307907F200EE
:10050800F3010318F30AF91BF30371087306031DBB
:100518008F2A70087206031D992A0130F0007008AE
:10052800FA0740307A060319FA013F307906031DAD
:100538009F2AF901A32A0130F0007008F90774080E
:10054800F0007908A03E84007008831380007A0ABE
:10055800031D0800FA010800FF30F9008312031395
:10056800A2002208FA00BF2ACF30BB2A64308316C3
:1005780003139900D22A83122108123A0319C82AB0
:10058800373A0319CD2AD22A2008C03A0319B82AC3
:10059800D22A2008803A0319BA2AD22A83160313CA
:1005A800181398161812181583120313981718138E
:1005B80018169811831603138C160B178B1708003F
:1006000003308A000408840A82070034433420340B
:100610002834543465346D34703465347234613444
:100620007434753472346534203469346E34203453
:10063000633465346C3473346934753473342934F9
:10064000003443346834653463346B3469346E3455
:100650006734003420340D34003483120313A401B2
:10066000A501201C392B2208A4070318A50A23087A
:10067000A50701300310A20DA30DFF3E031D3A2B69
:1006800001300310A10CA00CFF3E031D412B2008DC
:100690002104031D312B2508A1002408A000080017
:1006A00083120313A3002308A200A20DA20D1F08AA
:1006B0002206C33922069F008530A200A20B5E2BC2
:1006C000831203139F149F18632B1E08A100831627
:1006D00003131E0883120313A000080083120313E0
:1006E000A100210884000A128A1100230A128A112B
:1006F000003A031908000C1E7B2B210884000A1203
:100700008A1100230A128A1199000130A0002008E2
:10071000A107712B831603138C1E972B83120313CF
:100720008C1E972B0A128A116B220A128A117808E2
:1007300083120313FF0077088A0076088400750E81
:100740008300FE0E7E0E0900C130831203139F004A
:100750008030831603139F00080064008001840A20
:0A0760000406031900340406AE2B52
:04400E00E2EFFFFEE0
:00000001FF
