:060000000A128A11122809
:10000800FE00030EF5000408F6000A08F700831244
:1000180003137F08F8000A128A11AC2B0A128A11FE
:100028001528D601D701D801D901DA018313A030E8
:100038008400E0300A128A1114240A128A115630F8
:10004800FD000330FE00F830FF004C3084000A1237
:100058008A11CA2383010A128A11322801308312B5
:100068000313C0000030C100C501C6012C30840054
:100078004C30A8000408A9000A30AA002808840007
:1000880083130008AB00A80A290884002B08800005
:10009800A90AAA0B4228C901CA01C301C4018316CF
:1000A8000313880107128312031307128030A0007C
:1000B8002530A1000A128A11C4210A128A110A12D3
:1000C8008A11E8230A128A111A3083120313AA002C
:1000D8005E30A9008630A800A80B7028A90B7028EC
:1000E800AA0B702800000A128A11F8220A128A1133
:1000F8001A3083120313AA005E30A9008630A800C4
:10010800A80B8428A90B8428AA0B842800001C307B
:100118000A128A118C230A128A111A3083120313C5
:10012800AA005E30A9008630A800A80B9928A90B60
:100138009928AA0B99280000013083120313A10003
:100148008030A2000A128A1121230A128A11013072
:100158000A128A110B240A128A110330831203131C
:10016800AA008A30A9005630A800A80BB928A90B04
:10017800B928AA0BB928C0280A128A1169230A12B9
:100188008A1183120313A8002808C2004208031921
:10019800C0280A128A1146230A128A1183120313ED
:1001A800A8002808CB000F304005A8000030410502
:1001B800A90028082904031D112945084604031D20
:1001C800F228C0300A128A110B240A128A1101304F
:1001D80083120313C5000030C600112945034604E5
:1001E800031D112980300A128A110B240A128A1160
:1001F80001300A128A110B240A128A110D30831257
:100208000313A900FB30A800A80B0829A90B08298B
:100218000D2983120313C501C6010D304B06031DBA
:1002280019290A304B06031927294B080A128A1183
:1002380002240A128A11013083120313C00703181B
:10024800C10A0030C1074308440403199F294B0819
:10025800A8004908363E840028088313800001302E
:10026800C9070318CA0A0030CA074908303E0A12EB
:100278008A111C240A128A110030831203134A02BD
:10028800063003194902031C9F293630A1000030AB
:10029800A2000A128A1121230A128A111930831224
:1002A8000313A1008030A2000A128A1121230A1226
:1002B8008A112C3083120313A8002808A0000530E7
:1002C800A1000030A20036300A128A1151220A1207
:1002D8008A118312031320082104031D9929071684
:1002E800C701C8014808803AFF0080307F02031D1B
:1002F8007F290730470203189929831203134708F7
:10030800363E8400831380010130C7070318C80AEA
:100318000030C8074808803AFF0080307F02031D7C
:10032800972907304702031C812983120313C90147
:10033800CA01C301C4016D304B06031DC0284B0818
:10034800A8004908363E840028088313800001303D
:10035800C3070318C40A0030C4070130C9070318CB
:10036800CA0A0030CA072430A1008030A2000A124D
:100378008A1121230A128A11831203130712C02833
:10038800FF30F90083120313A2002208FA00D729CC
:100398006430D3294030D3292A30D3292430831616
:1003A80003139900FA2983122108253A0319E6292B
:1003B8006E3A0319EB293B3A0319F029F33A03196A
:1003C800F529FA292008803A0319CC29FA292008A6
:1003D800003A0319CE29FA292008803A0319D029AE
:1003E800FA292008403A0319D229FA298316031357
:1003F8001813981618121815831203139817181340
:1004080018169811831603138C160B178B170800F0
:1004180083120313861C122A8610132A86141A08BC
:10042800F0007008F4003F30790603197A080319C0
:10043800322A7A08F000F101F01BF1030130790744
:10044800F200F3010318F30AF91BF30371087306AA
:10045800031D302A70087206031D3A2A0130F00085
:100468007008FA0740307A060319FA013F30790616
:10047800031D402AF901442A0130F0007008F907E9
:100488007408F0007908A03E840070088313800087
:100498007A0A031D0800FA01080083120313A50055
:1004A8000130A1020030031CA203A202210A031991
:1004B800220A03198C2A25088400831300080319CB
:1004C8006F2A200884000008A3002508840000087B
:1004D80023060319832A200884000008A300A40126
:1004E800A309A409A30A0319A40A2508840000087B
:1004F8002307A00024080318240AA10008000130DB
:10050800A3002308A5070130A3002308A007542A45
:10051800A001A1010800FF1B992A83137F188317E4
:100528000008840A0319FF0A080002308A00040838
:10053800840A820700344834693469342E342E34EE
:10054800203442346C347534653474346F346F3409
:100558007434683420346934733420347234653424
:100568006134643479340D340A34003477346534B2
:100578006C3463346F346D346534003446346C3411
:10058800613467347334653474340034831203136C
:10059800A400F0302405A20008080F3922048800BE
:1005A8000A128A11E8230A128A11831203132408F3
:1005B800A20004300310A20DFF3E031DDE2A080826
:1005C8000F39220488000A128A11E8230A128A11B4
:1005D800213083120313A3007630A200A20BF22A63
:1005E800A30BF22A00000800831603130808033936
:1005F800880083120313881108110F30A6002608FB
:1006080088050A128A11D7230A128A1128300A1279
:100618008A110B240A128A110C300A128A110B242F
:100628000A128A1106300A128A110B240A128A1138
:1006380001300A128A110B240800831203132208BE
:10064800FF00210884000A128A118F220A128A11D7
:10065800003A03190800831203132208FF00210837
:1006680084000A128A118F220A128A110A128A1128
:100678001C240A128A11013083120313A1070318DC
:10068800A20A212B7A0A031D4B2B003008007A0896
:10069800A03E84008313000883120313A0002008DF
:1006A800A1007A087906031D5F2BFF30F900A0002E
:1006B8002008FA00672B0130A0002008FA07403014
:1006C8007A060319FA01210808007A0A031D6E2B1D
:1006D800003008007A08803A83120313A0007908D2
:1006E800803AA00203187D2B7A03FF3A7907013E6E
:1006F80008007908803AA0007A08803AA002031816
:100708008A2B7A03FF3A7907413E08000130080036
:1007180083120313A700270884000A128A1199225A
:100728000A128A11003A03190800270884000A12DD
:100738008A1199220A128A110A128A1102240A12AB
:100748008A11013083120313A6002608A7078F2BEE
:10075800831603138C1EB92B831203138C1EB92B1B
:100768000A128A110C220A128A11780883120313BA
:10077800FF0077088A0076088400750E8300FE0E55
:100788007E0E09007E088A007F088200C6230A12AE
:100798008A118000840A04087D0603190034FF0AC0
:1007A8000319FE0ACA2B33300A128A110B240A12C3
:1007B8008A1133300A128A110B240A128A11323034
:1007C8000A128A110B24080083120313881541307A
:1007D800A100EE30A000A00BEF2BA10BEF2B000027
:1007E80083120313881108006D346534653472343C
:1007F80061340034003400340034003483120313AD
:10080800A500081525080A128A11CA2208008312B1
:100818000313A500081125080A128A11CA22080024
:1008280064008001840A0406031900340406152CA8
:1008380083120313A0000C1E1F2C20089900080027
:04400E00E2EFFFFEE0
:00000001FF
